S01C00005361696C696E6720526F626F742044656D6F20322E7372656324
S214000000B01F0020B9600000B1600000B1600000C1
S214000010B1600000B1600000B160000000000000A8
S214000020000000000000000000000000B1600000BA
S214000030B160000000000000B1600000B160000088
S214000040B1600000B1600000B1600000B160000067
S214000050B1600000B1600000B1600000B160000057
S214000060B1600000B1600000B1600000B160000047
S214000070B1600000B1600000B1600000B160000037
S214000080B1600000B1600000B1600000B160000027
S214000090B1600000B1600000B1600000B160000017
S2140000A0B16000008113000095130000A913000042
S2140000B0BD130000D1130000E5130000F913000083
S2140000C00D1400002114000035140000491400002F
S2140000D05D140000B1600000B1600000B160000077
S2140000E0A1100000B1600000B1600000B160000027
S2140000F0B1600000B1600000B1600000B1600000B7
S214000100B1600000B1600000B1600000B1600000A6
S214000110B1600000B1600000B1600000B160000096
S214000120B1600000456B0000B1600000B1600000E7
S214000130B1600000B1600000B1600000B160000076
S214000140B1600000356B0000256B0000B160000058
S214000150B1600000B1600000B1600000B160000056
S214000160B1600000B1600000B1600000B160000046
S214000170B1600000B1600000B1600000B160000036
S21400018008B50548054B1B1A062B00D808BD044BBE
S214000190002BFBD09847F9E7380D01003B0D010016
S2140001A00000000008B50748074B1B1A9B1003EB1E
S2140001B0D373591000D108BD044A002AFBD09047DB
S2140001C0F9E700BF380D0100380D010000000000FF
S2140001D010B5064C237843B9FFF7D2FF044B13B192
S2140001E00448AFF300800123237010BD640D002087
S2140001F000000000380D010008B5084B1BB1084888
S2140002000849AFF300800848036813B1074B03B1F1
S2140002109847BDE80840FFF7C5BF00BF00000000D4
S214000220380D0100680D0020380D010000000000A8
S21400023080B483B000AF0346FB71FB79062B21D850
S21400024001A252F823F000BF650200006902000018
S2140002506F02000075020000790200007D020000B7
S214000260810200000B4B0EE04FF400430BE04FF40E
S214000270004308E0084B06E0084B04E0084B02E0A9
S214000280084B00E0002318460C37BD465DF8047B9B
S214000290704700BF001BB70000B4C40400093D004F
S2140002A040420F0038C1010080B500AF0020034B6C
S2140002B0984703469B00184680BD00BF31020000E9
S2140002C080B500AF024B98470346184680BD00BF76
S2140002D0A902000000000000B0B58EB000AF0346D3
S2140002E0FB7111233B7307F10C0339481946394B50
S2140002F098474F237B63002387F8333097F83330D3
S214000300002B16D07B6BFB62FB6ABB62BB6A5B0989
S2140003107B627B6A03F5001303F5E1635B027A6B8D
S2140003203A623A6A02F01F02012101FA02F25A65A5
S21400033015E07B6BFB61FB69BB61BB695B097B619D
S2140003407B6903F5001303F5E1635B027A6B3A61A0
S2140003503A6902F01F02012101FA02F29A65FB795E
S2140003601B4819461C4B98471C4B98470346184693
S2140003704FF0000102460B469D0045EA9275940038
S21400038022462B46801841EB03010FA3D3E9002336
S214000390121843EB0103124C10461946114A4FF04F
S2140003A00003A04702460B46134618460E4B9847D6
S2140003B007F10C03064819460C4B98473837BD46DC
S2140003C0B0BD00BFAFF300807F9FD50000000000E7
S2140003D000C00240690A0000490A0000C10200008D
S2140003E0D17C0000809FD50001000020850A000017
S2140003F02DE9F04399B000AF0346FB7111233B7320
S21400040007F10C0366481946664B98474F23FB6571
S214000410012387F85B3097F85B30002B16D0FB6D16
S2140004207B657B6D3B653B6D5B09FB64FB6C03F595
S214000430001303F5E1635B02FA6DBA64BA6C02F06E
S2140004401F02012101FA02F25A6515E0FB6D7B647A
S2140004507B6C3B643B6C5B09FB63FB6B03F5001337
S21400046003F5E1635B02FA6DBA63BA6B02F01F0232
S214000470012101FA02F29A654B4B9847034618464B
S2140004804FF0000102460B464FEA830949EA92798B
S2140004904FEA820842464B46801841EB03013EA3D2
S2140004A0D3E90023121843EB0103404E10461946C9
S2140004B03F4A4FF00003B04702460B461346184625
S2140004C03C4B9847FB79364819463B4B98474F2399
S2140004D07B63012387F8333097F83330002B16D030
S2140004E07B6BFB62FB6ABB62BB6A5B097B627B6AF7
S2140004F003F5001303F5E1635B027A6B3A623A6A2E
S21400050002F01F02012101FA02F25A6515E07B6B28
S214000510FB61FB69BB61BB695B097B617B6903F5BA
S214000520001303F5E1635B027A6B3A613A6902F005
S2140005301F02012101FA02F29A651B4B98470346F7
S21400054018464FF0000102460B469D0045EA92759C
S214000550940022462B46801841EB03010EA3D3E9F4
S2140005600023121843EB0103104C10461946104A9C
S2140005704FF00003A04702460B46134618460D4BA5
S214000580984707F10C03064819460C4B9847643702
S214000590BD46BDE8F08300BF7F9FD5000000000089
S2140005A000C00240690A0000C1020000D17C0000C1
S2140005B0809FD50001000020490A0000850A00003F
S2140005C02DE9F04395B000AF0A23FB64002387F8BB
S2140005D04B3097F84B30002B16D0FB6C7B647B6C53
S2140005E03B643B6C5B09FB63FB6B03F5001303F595
S2140005F0E1635B02FA6CBA63BA6B02F01F02012178
S21400060001FA02F25A6515E0FB6C7B637B6B3B6379
S2140006103B6B5B09FB62FB6A03F5001303F5E163C2
S2140006205B02FA6CBA62BA6A02F01F02012101FA92
S21400063002F29A65444B9847034618464FF000016D
S21400064002460B464FEA830949EA92794FEA820846
S21400065042464B46801841EB030139A3D3E90023F9
S214000660121843EB0103394E10461946384A4FF02C
S2140006700003B04702460B4613461846354B9847CC
S2140006800A237B62012387F8233097F82330002B58
S21400069016D07B6AFB61FB69BB61BB695B097B614A
S2140006A07B6903F5001303F5E1635B027A6A3A613E
S2140006B03A6902F01F02012101FA02F25A6515E0BA
S2140006C07B6AFB60FB68BB60BB685B097B607B6822
S2140006D003F5001303F5E1635B027A6A3A603A6851
S2140006E002F01F02012101FA02F29A65164B9847A2
S2140006F0034618464FF0000102460B469D0045EAA9
S2140007009275940022462B46801841EB03010CA3F9
S214000710D3E90023121843EB01030C4C104619468C
S2140007200B4A4FF00003A04702460B4613461846F6
S214000730084B98475437BD46BDE8F083AFF30080BA
S2140007407F9FD50000000000C1020000D17C0000A1
S214000750809FD5000100002080B500AFAF20014B80
S214000760984780BDD902000080B582B000AF03462E
S214000770FB718120054B9847FB791846034B984739
S214000780FB7918460837BD4680BD00BFD902000079
S21400079080B500AFA620014B984780BDD902000067
S2140007A090B587B002AF0023FB730023BB60112314
S2140007B03B710848084B98473A1DFB7BB968009187
S2140007C0044811461A46054B054CA0471437BD464B
S2140007D090BD00BF00C002409109000080969800BE
S2140007E0F109000080B500AF204B9847204B984792
S2140007F0A820204B98471F201E4B9847D3201D4B00
S214000800984700201B4B984740201A4B9847A1203A
S214000810184B9847C820174B9847DA20154B98472F
S2140008200220144B98478F20134B9847A420114B57
S2140008309847124B9847D5200E4B984780200D4B73
S21400084098478D200B4B984714200A4B9847DB207F
S214000850084B98474020074B9847D920054B9847A8
S214000860F120044B9847064B984780BDC105000011
S214000870A1070000D90200006907000091070000E8
S2140008805907000080B584B000AF786023E07B682D
S2140008901B787E2B1CD87B681B78A3F12002114B9B
S2140008A053F82230BB600123FB7309E0FB7BBA6878
S2140008B013441B7818460C4B9847FB7B0133FB739D
S2140008C0BB681B78FA7B9A42F0D90020064B984703
S2140008D07B6801337B607B681B78002BD7D1103791
S2140008E0BD4680BD90000020F103000080B483B0B8
S2140008F000AF0346FB71FB79062B21D801A252F804
S21400090023F000BF21090000250900002B09000084
S2140009103109000035090000390900003D090000D2
S2140009200B4B0EE04FF400430BE04FF4004308E09F
S214000930084B06E0084B04E0084B02E0084B00E0DA
S214000940002318460C37BD465DF8047B704700BF91
S214000950001BB70000B4C40400093D0040420F006D
S21400096038C1010080B500AF0020034B984703460E
S2140009709B00184680BD00BFED08000080B500AFA4
S214000980024B98470346184680BD00BF6509000025
S21400099080B584B000AF78607A68104B9A4202D176
S2140009A00823FB7313E07A680D4B9A4202D10923A1
S2140009B0FB730CE07A680B4B9A4202D10A23FB7356
S2140009C005E07A68084B9A4201D10B23FB737868DE
S2140009D0064B98471037BD4680BD00BF004002401A
S2140009E00080024000C0024000000340994800001A
S2140009F080B588B000AFF860B9603B601346FB7105
S214000A003B683B61C0237B61FB79BB610023FB61D4
S214000A10094B9847034607F11002F86811461A4634
S214000A20064B9847F868064B9847F868054B984772
S214000A302037BD4680BD00BF7D0900007517000049
S214000A40B51800008518000080B582B000AF786049
S214000A500B46FB70FB7878681946024B98470837B8
S214000A60BD4680BDC119000080B582B000AF786079
S214000A7039607868024B98470837BD4680BD00BF8E
S214000A805519000080B582B000AF7860396078688C
S214000A90024B98470837BD4680BD00BF711900005D
S214000AA080B586B000AFF860B9607A6000237B61DD
S214000AB0FB68002B02D04FF0FF3314E00FE00C4B26
S214000AC01B680C4A12681046B9689847BB68013321
S214000AD0BB607B6901337B617B68013B7B607B6825
S214000AE0002BECDC7B6918461837BD4680BD00BF7E
S214000AF00C0E0020140E002080B586B000AFF86003
S214000B00B9607A6000237B61FB68012B08D0FB6824
S214000B10022B05D0FB68032B02D04FF0FF331BE0FF
S214000B2016E00F4B1A680F4B1968BB68581CB86064
S214000B301B780846194690470346002B02DA4FF00A
S214000B40FF3309E07B6901337B617B68013B7B6097
S214000B507B68002BE5D17B6918461837BD4680BDFB
S214000B60100E0020140E002080B483B000AF0346A1
S214000B70FB71084B97F907205209F97901F01F011C
S214000B80012000FA01F143F822100C37BD465DF84B
S214000B90047B704700E100E080B483B000AF0346FA
S214000BA0FB71094B97F907205209F97901F01F01EB
S214000BB0012000FA01F1603243F822100C37BD46DE
S214000BC05DF8047B704700BF00E100E080B483B0AE
S214000BD000AF03463960FB7197F90730002B0BDA3C
S214000BE00D49FB7903F00F03043B3A68D2B21201B9
S214000BF0D2B20B441A7609E0084997F907303A68EA
S214000C00D2B21201D2B20B4483F800230C37BD4691
S214000C105DF8047B704700BF00ED00E000E100E0F7
S214000C2080B483B000AFEFF310833B603B68002BCB
S214000C3014BF00230123DBB27B6072B6BFF35F8F65
S214000C40044B00221A707B6818460C37BD465DF8C8
S214000C50047B70478C04002080B483B000AF7860BB
S214000C607B68002B0CBF00230123DBB218460C3731
S214000C70BD465DF8047B704780B582B000AF7860F3
S214000C807868074B98470346002B05D0054B012292
S214000C901A70BFF35F8F62B60837BD4680BD00BFCF
S214000CA0590C00008C04002080B483B000AF78603C
S214000CB07B689B6803F08053002B0CBF0023012346
S214000CC0DBB218460C37BD465DF8047B704700BFA4
S214000CD080B483B000AF78607B689B6803F0807355
S214000CE0002B0CBF00230123DBB218460C37BD4691
S214000CF05DF8047B704700BF80B584B000AF034644
S214000D00FB71084B9847F860FB79074AD25C0132C2
S214000D10D1B2054AD154F868044B98471037BD46FF
S214000D2080BD00BF210C0000040E0020790C0000DE
S214000D3080B582B000AF78607868044B984707208B
S214000D40034B98470837BD4680BD00BF9948000052
S214000D50F90C000080B584B000AF7860396042F2CC
S214000D601073FB6007E0FB68013BFB60FB68002B31
S214000D7001D100237BE078683F4B98470346002B61
S214000D80F1D13B685B781B021A467B681A6442F214
S214000D901073FB6007E0FB68013BFB60FB68002B01
S214000DA001D1002363E07868334B98470346002B55
S214000DB0F1D17B681B6C43F001027B681A6442F237
S214000DC01073FB6007E0FB68013BFB60FB68002BD1
S214000DD001D100234BE07868274B98470346002B49
S214000DE0F1D13B681B78012B06D13B689B781B042E
S214000DF043F004027B681A603B681B78002B06D120
S214000E003B689B781B041A467B681A60FFE700BFA6
S214000E1078681A4B98470346002BF9D13B681B7835
S214000E20012B04D13B6878689968154B98473B6856
S214000E301B78002B06D13B685B6878681946114B17
S214000E409847FFE700BF78680C4B98470346002B8F
S214000E50F9D17B681B6843F001027B681A6000BF0B
S214000E607868064B98470346002BF9D101231846AD
S214000E701037BD4680BD00BFA90C0000D10C000095
S214000E80890E0000C10E000080B582B000AF786009
S214000E90396000BF7868094B98470346002BF9D1A4
S214000EA03A687B685A6500BF7868044B98470346E3
S214000EB0002BF9D10837BD4680BD00BFD10C00001D
S214000EC080B582B000AF7860396000BF7868094BA3
S214000ED098470346002BF9D17B683A685A6000BFF2
S214000EE07868044B98470346002BF9D10837BD466F
S214000EF080BD00BFD10C000080B582B000AF786026
S214000F00396000BF7868094B98470346002BF9D133
S214000F107B683A681A6300BF7868044B98470346B4
S214000F20002BF9D10837BD4680BD00BFD10C0000AC
S214000F3080B582B000AF78600B46FB7000BF786863
S214000F401C4B98470346002BF9D1FB78042B25D879
S214000F5001A252F823F000BF6D0F0000770F0000CB
S214000F60810F0000890F0000930F00007B684FF48C
S214000F7080721A6113E07B684FF480321A610EE0CB
S214000F807B6801221A610AE07B684FF000721A61E2
S214000F9005E07B684FF000521A6100E000BF00BF1A
S214000FA07868044B98470346002BF9D10837BD46AE
S214000FB080BD00BFD10C000080B582B000AF786065
S214000FC00B46FB7000BF78681C4B98470346002B07
S214000FD0F9D1FB78042B25D801A252F823F000BFE4
S214000FE0F50F0000FF0F00000910000011100000B0
S214000FF01B1000007B684FF48072DA6013E07B6899
S2140010004FF48032DA600EE07B680122DA600AE094
S2140010107B684FF00072DA6005E07B684FF00052A4
S214001020DA6000E000BF00BF7868044B98470346CC
S214001030002BF9D10837BD4680BD00BFD10C00009B
S21400104080B584B000AFF8607A600A46FA72BB7268
S214001050FA7A0E4B796843F82210BB7A5BB21846D0
S2140010600B4B9847BA7A3B7E52B210461946094B4C
S2140010709847BB7A5BB21846074B9847FB7AF868E6
S2140010801946064B98471037BD4680BD180E0020FF
S214001090990B0000CD0B0000690B0000310F00001B
S2140010A080B500AF014B5B68984780BD180E0020E6
S2140010B080B582B000AF78600B46FB7000BF7868E2
S2140010C0154B98470346002BF9D1FB78012B0BD024
S2140010D0022B10D0002B00D014E07B68DB6943F4B1
S2140010E080727B68DA610DE07B68DB6943F48032EE
S2140010F07B68DA6106E07B68DB6943F001027B68A7
S214001100DA6100BF00BF7868034B98470346002BA0
S214001110F9D10837BD4680BDD10C000080B483B03D
S21400112000AF0346FB71084B97F907205209F9797F
S21400113001F01F01012000FA01F143F822100C37DC
S214001140BD465DF8047B704700E100E080B483B0E4
S21400115000AF0346FB71094B97F907205209F9794E
S21400116001F01F01012000FA01F1603243F822105D
S2140011700C37BD465DF8047B704700BF00E100E019
S21400118080B483B000AF03463960FB7197F907302F
S214001190002B0BDA0D49FB7903F00F03043B3A688A
S2140011A0D2B21201D2B20B441A7609E0084997F976
S2140011B007303A68D2B21201D2B20B4483F8002349
S2140011C00C37BD465DF8047B704700BF00ED00E0BD
S2140011D000E100E080B485B000AF78607B68FB601B
S2140011E0FB685B0918461437BD465DF8047B7047FC
S2140011F080B485B000AF78607B68FB60FB6803F066
S2140012001F03012202FA03F318461437BD465DF8A1
S214001210047B704780B586B000AFF860B9601346AF
S214001220FB71294B1B68052B01D9002348E00023DE
S214001230FB7510E0F868254B9847024697F917307B
S214001240DB00FF2101FA03F31340002B00D006E079
S214001250FB7D0133FB7597F91730032BEADDF86841
S2140012601B4B98470346DBB29B00DAB2FB7D134468
S214001270DBB21933DBB2BB75134B1A68154BF96832
S21400128043F83210104B1B68124ADB001344BA684E
S2140012905A6097F9163018460F4B9847FB7997F91E
S2140012A01620104619460D4B984797F916301846E3
S2140012B00B4B9847044B1B685A1C034B1A600123C0
S2140012C018461837BD4680BDB00D0020F11100004D
S2140012D0D5110000800D00204D1100008111000086
S2140012E01D11000080B586B000AF786039607B685D
S2140012F05B0203F1804303F561233B613B69D3F84E
S214001300D030FB60FA683B681A403B69C3F8D820C7
S21400131000237B6123E0164B7A6953F83230BB60BA
S214001320B868144B984702467B689A4214D1B8684E
S214001330114B98470246FB681340002B0CD00C4A12
S2140013407B69DB0013445B68002B05D0084A7B6989
S214001350DB0013445B6898477B6901337B61074B6E
S2140013601B687A699A42D6D31837BD4680BD00BF3F
S214001370800D0020D5110000F1110000B00D0020F6
S21400138080B500AF0020FF21014B984780BD00BF0D
S214001390E512000080B500AF00204FF47F41014BFE
S2140013A0984780BDE512000080B500AF00204FF4DE
S2140013B07F01014B984780BDE512000080B500AF65
S2140013C000204FF07F41014B984780BDE51200009A
S2140013D080B500AF0120FF21014B984780BD00BFBC
S2140013E0E512000080B500AF01204FF47F41014BAD
S2140013F0984780BDE512000080B500AF01204FF48D
S2140014007F01014B984780BDE512000080B500AF14
S21400141001204FF07F41014B984780BDE512000048
S21400142080B500AF0220FF21014B984780BD00BF6A
S214001430E512000080B500AF02204FF47F41014B5B
S214001440984780BDE512000080B500AF02204FF43B
S2140014507F01014B984780BDE512000080B500AFC4
S21400146002204FF07F41014B984780BDE5120000F7
S21400147080B487B000AFF860B9607A60BB689B0143
S214001480FA6813447B617B6902221A607B694FF01D
S214001490FF329A627B691B6A7B697A685A601C37DE
S2140014A0BD465DF8047B704780B483B000AF7860BB
S2140014B039607A683B689B01134405221A600C3732
S2140014C0BD465DF8047B704780B483B000AF78609B
S2140014D039607A683B689B01134402221A600C3715
S2140014E0BD465DF8047B704780B483B000AF78607B
S2140014F039607A683B689B01134410335B68184672
S2140015000C37BD465DF8047B704700BF80B483B0DF
S21400151000AF786039607A683B689B0113441833E3
S2140015201B6818460C37BD465DF8047B704700BF45
S21400153080B485B000AFF860B9607A60FA68BB68BE
S2140015409B01134410337A685A601437BD465DF821
S214001550047B704780B485B000AFF860B9607A60ED
S214001560FA68BB689B01134418337A685A601437CC
S214001570BD465DF8047B704780B487B000AFF86066
S214001580B9607A60BB689B01FA6813447B617B692B
S2140015907A685A621C37BD465DF8047B704700BF08
S2140015A080B485B000AF786039603B689B017A688C
S2140015B01344FB60FB681B6A18461437BD465DF88B
S2140015C0047B704780B489B000AFF860B9607A6079
S2140015D0BB681A017B689A4202D81023FB6101E0BF
S2140015E00823FB617B68DA00FB69B96801FB03F33B
S2140015F05B081A44FB69B96801FB03F3B2FBF3F31B
S214001600BB61BB69DB087B61BB6903F007033B6119
S2140016107B69002B03D07B69B3F5803F01D30123A0
S2140016200FE0FB69082B05D1FB685B6843F40022DA
S214001630FB685A603B691A047B691A43FB681A62A6
S214001640002318462437BD465DF8047B704700BF6C
S21400165080B487B000AFF860B9607A60BB685A089B
S2140016607B681A44BB68B2FBF3F37B617B69032B90
S21400167003D97B69B3F5803F01D3012303E0FB6800
S2140016807A691A62002318461C37BD465DF8047B4B
S214001690704700BF80B582B000AF786078680E4BA8
S2140016A098477B6800225A607B6800225A627B68F3
S2140016B000229A627868094B98477868084B9847E2
S2140016C07868084B98477868074B98477868074BC0
S2140016D098470837BD4680BD251A00009D180000B3
S2140016E0CD18000001190000391900001D1900006E
S2140016F080B584B000AFF860B9607A60F8681A4BBD
S21400170098471A4B00221A60BB68002B09D0BB68AA
S2140017101B68F86819467A68154B98470346002BED
S21400172001D001231BE0BB685A68BB689B681A435C
S214001730BB681B691A43BB68DB681A430B4B1B6804
S2140017401A430A4B1A60094B1A68084B1A60FB6862
S2140017505A68064B1B681A43FB685A6000231846F3
S2140017601037BD4680BD00BF95160000B40D0020A2
S214001770C515000080B584B000AFF860B9607A6027
S214001780F8683D4B98473D4B00221A60BB68002B1B
S2140017900DD0BB689B68032B09D8BB681B68F8682C
S2140017A019467A68364B98470346002B01D001232A
S2140017B05DE0BB685A68314B1B681A432F4B1A60B2
S2140017C0BB68DA682D4B1B68134343F4802343F051
S2140017D00E032A4A1360BB689B68032B3ED801A2FF
S2140017E052F823F0F51700000F1800002918000023
S2140017F043180000214B1B6843F480721F4B1A608D
S2140018001E4B1B6823F480321C4B1A6027E01B4BD0
S2140018101B6823F48072194B1A60184B1B6823F45C
S2140018208032164B1A601AE0144B1B6843F4807221
S214001830124B1A60114B1B6843F480320F4B1A6030
S2140018400DE00E4B1B6823F480720C4B1A600B4B9A
S2140018501B6843F48032094B1A6000E000BFFB6847
S2140018605A68064B1B681A43FB685A6000231846E2
S2140018701037BD4680BD00BF95160000B80D00208D
S2140018805116000080B483B000AF78607B684022B9
S2140018901A600C37BD465DF8047B704780B483B091
S2140018A000AF78607B6888221A600C37BD465DF80A
S2140018B0047B704780B483B000AF78607B681022EA
S2140018C01A600C37BD465DF8047B704780B483B061
S2140018D000AF78607B6824221A600C37BD465DF83E
S2140018E0047B704780B483B000AF786039607B6853
S2140018F03A689A600C37BD465DF8047B704700BFB7
S21400190080B483B000AF78607B684FF480721A6052
S2140019100C37BD465DF8047B704700BF80B483B0CB
S21400192000AF78607B684FF400321A600C37BD4613
S2140019305DF8047B704700BF80B483B000AF78606A
S2140019407B684FF400221A600C37BD465DF8047BB6
S214001950704700BF80B483B000AF78607B684FF4F8
S21400196080221A600C37BD465DF8047B704700BFC6
S21400197080B483B000AF78607B684FF400221A60B2
S2140019800C37BD465DF8047B704700BF80B483B05B
S21400199000AF786039607B685B6903F00203002B58
S2140019A001D1012305E03B68C3F308027B68DA61D6
S2140019B0002318460C37BD465DF8047B704700BF11
S2140019C080B483B000AF7860396000BF7B685B6925
S2140019D003F00203002BF9D03B68C3F308027B68D0
S2140019E0DA61002318460C37BD465DF8047B704765
S2140019F080B483B000AF786039607B685B6903F0C1
S214001A000103002B01D1012306E07B689B69C3F329
S214001A1008023B681A60002318460C37BD465DF87E
S214001A20047B704780B483B000AF78607B68044A5C
S214001A30C3F8E4200C37BD465DF8047B704700BF52
S214001A400041535580B483B000AF0346FB71084B8A
S214001A5097F907205209F97901F01F01012000FAD1
S214001A6001F143F822100C37BD465DF8047B704741
S214001A7000E100E080B483B000AF03463960FB713C
S214001A8097F90730002B0BDA0D49FB7903F00F03AB
S214001A90043B3A68D2B21201D2B20B441A7609E07D
S214001AA0084997F907303A68D2B21201D2B20B440D
S214001AB083F800230C37BD465DF8047B704700BFF3
S214001AC000ED00E000E100E080B483B000AF034624
S214001AD0FB71FB79062B21D801A252F823F000BF38
S214001AE0FD1A0000011B0000071B00000D1B000074
S214001AF0111B0000151B0000191B00000B4B0EE00D
S214001B004FF400430BE04FF4004308E0084B06E0B8
S214001B10084B04E0084B02E0084B00E000231846A0
S214001B200C37BD465DF8047B704700BF001BB7004E
S214001B3000B4C40400093D0040420F0038C1010053
S214001B4080B500AF0020034B984703469B0018461D
S214001B5080BD00BFC91A000080B500AF024B984791
S214001B600346184680BD00BF411B000080B500AF8D
S214001B70024B98470346184680BD00BF411B000035
S214001B8080B500AF024B98470346184680BD00BF9D
S214001B90411B000080B500AF024B9847034618462D
S214001BA080BD00BF411B000080B500AF024B9847C8
S214001BB00346184680BD00BF411B00000000000021
S214001BC0B0B58EB000AF0346FB7111233B7307F12F
S214001BD00C0339481946394B98474F237B6300233B
S214001BE087F8333097F83330002B16D07B6BFB62C8
S214001BF0FB6ABB62BB6A5B097B627B6A03F5001308
S214001C0003F5E1635B027A6B3A623A6A02F01F02FE
S214001C10012101FA02F25A6515E07B6BFB61FB6954
S214001C20BB61BB695B097B617B6903F5001303F548
S214001C30E1635B027A6B3A613A6902F01F020121A6
S214001C4001FA02F29A65FB791B4819461C4B984725
S214001C501C4B9847034618464FF0000102460B46B9
S214001C609D0045EA9275940022462B46801841EB6B
S214001C7003010FA3D3E90023121843EB0103124C10
S214001C8010461946114A4FF00003A04702460B467D
S214001C90134618460E4B984707F10C03064819469C
S214001CA00C4B98473837BD46B0BD00BFAFF3008039
S214001CB07F9FD5000000000000C00240690A0000B7
S214001CC0490A0000591B0000D17C0000809FD50007
S214001CD001000020850A00002DE9F04399B000AF0E
S214001CE00346FB7111233B7307F10C036648194644
S214001CF0664B98474F23FB65012387F85B3097F8C0
S214001D005B30002B16D0FB6D7B657B6D3B653B6DBA
S214001D105B09FB64FB6C03F5001303F5E1635B02F0
S214001D20FA6DBA64BA6C02F01F02012101FA02F2DF
S214001D305A6515E0FB6D7B647B6C3B643B6C5B0912
S214001D40FB63FB6B03F5001303F5E1635B02FA6DBF
S214001D50BA63BA6B02F01F02012101FA02F29A6519
S214001D604B4B9847034618464FF0000102460B4679
S214001D704FEA830949EA92794FEA820842464B467F
S214001D80801841EB03013EA3D3E90023121843EB6E
S214001D900103404E104619463F4A4FF00003B04735
S214001DA002460B46134618463C4B9847FB79364886
S214001DB019463B4B98474F237B63012387F8333004
S214001DC097F83330002B16D07B6BFB62FB6ABB6246
S214001DD0BB6A5B097B627B6A03F5001303F5E1636C
S214001DE05B027A6B3A623A6A02F01F02012101FA3C
S214001DF002F25A6515E07B6BFB61FB69BB61BB6950
S214001E005B097B617B6903F5001303F5E1635B0205
S214001E107A6B3A613A6902F01F02012101FA02F276
S214001E209A651B4B9847034618464FF0000102463A
S214001E300B469D0045EA9275940022462B46801874
S214001E4041EB03010EA3D3E90023121843EB010371
S214001E50104C10461946104A4FF00003A0470246A1
S214001E600B46134618460D4B984707F10C030648D9
S214001E7019460C4B98476437BD46BDE8F08300BF53
S214001E807F9FD5000000000000C00240690A0000E5
S214001E90591B0000D17C0000809FD5000100002067
S214001EA0490A0000850A000080B582B000AF0346EC
S214001EB0FB71FB7903F00F03FB71FB7903F007035B
S214001EC0DBB263F04F03DBB2DBB21846024B984737
S214001ED00837BD4680BD00BFC11B000080B582B07C
S214001EE000AF0346FB71FB7903F07F03FB71FB79C0
S214001EF01B09DBB243F01003DBB21846054B9847CC
S214001F00FB7903F00F03DBB21846024B98470837FD
S214001F10BD4680BDC11B000080B582B000AF002367
S214001F20FB710023BB710023FB7116E0FB7918469A
S214001F300D4B984700200D4B98470023BB7105E0DA
S214001F4000200B4B9847BB790133BB71BB795BB262
S214001F50002BF5DAFB790133FB71FB79032BE5D90E
S214001F600837BD4680BD00BFA91E0000DD1E00006C
S214001F70D91C000080B588B000AF786039603B6837
S214001F801B68BB603B685B68FB603B689B683B61AB
S214001F903B681B7B7B610023BB617A68304B9A42AF
S214001FA013D178682F4B984778682F4B984703468D
S214001FB007F10802786811461A462C4B984778684D
S214001FC02B4B984778682B4B98477A682A4B9A424F
S214001FD013D17868234B98477868234B9847034675
S214001FE007F10802786811461A46204B9847786829
S214001FF01F4B984778681F4B98477A681F4B9A4242
S21400200013D17868174B98477868174B984703465C
S21400201007F10802786811461A46144B9847786804
S214002020134B98477868134B98477A68144B9A4234
S21400203013D178680B4B984778680B4B9847034644
S21400204007F10802786811461A46084B98477868E0
S214002050074B98477868074B98472037BD4680BDA2
S21400206000400240994800002D460000F11600008E
S21400207085180000B51800000080024000C002402D
S2140020800000034080B582B000AF78600B46FB705E
S2140020907A68204B9A420AD100BFFB7878681946C6
S2140020A01D4B98470346002BF7D101232DE07A6895
S2140020B01A4B9A420AD100BFFB7878681946164B2D
S2140020C098470346002BF7D101231EE07A68144B8D
S2140020D09A420AD100BFFB78786819460E4B98479B
S2140020E00346002BF7D101230FE07A680D4B9A4286
S2140020F00AD100BFFB7878681946074B9847034615
S214002100002BF7D1012300E0002318460837BD4610
S21400211080BD00BF004002408D19000000800240D4
S21400212000C002400000034080B584B000AF786075
S21400213039600023FB607A68244B9A420DD100BFB9
S21400214007F10C0378681946214B98470346002B85
S214002150F6D1FB68DAB23B681A707A681D4B9A4271
S2140021600DD100BF07F10C0378681946184B984745
S2140021700346002BF6D1FB68DAB23B681A707A6821
S214002180154B9A420DD100BF07F10C03786819462B
S2140021900F4B98470346002BF6D1FB68DAB23B6834
S2140021A01A707A680D4B9A420DD100BF07F10C03E6
S2140021B078681946064B98470346002BF6D1FB680D
S2140021C0DAB23B681A701037BD4680BD0040024048
S2140021D0F11900000080024000C0024000000340E9
S2140021E080B582B000AF786039600F4B7A681A60AD
S2140021F00E4B0F4A1A600F4B0F4A1A607868396800
S2140022000E4B98470E4B1B689B68184600210D4BDB
S21400221098470B4B1B685B6818460021094B98478C
S2140022200837BD4680BD00BF140E0020100E0020EB
S214002230852000000C0E002029210000751F0000DC
S214002240A00400205183000090B585B000AF7860F0
S21400225039607B6818463968022201230A4CA04779
S2140022600346FB60FA68094B9A4203D10848094BBB
S214002270984706E0FA68084B9A4202D10748054B91
S21400228098471437BD4690BDCD5C0000CD5A00007F
S2140022909403010001830000F15A0000B803010016
S2140022A080B586B000AF01237B8200233B820023EB
S2140022B0FB813223BB810123FB8201237B81002328
S2140022C03B810023FB803223BB800023BB8207F1C7
S2140022D0120317481946174B984707F1100316487C
S2140022E01946144B984707F10E0314481946114B2C
S2140022F0984707F10C03124819460E4B984707F10A
S2140023000A03104819460B4B984707F108030E4876
S2140023101946084B9847BB1D0C481946054B98476D
S2140023203B1D0B481946034B98471837BD4680BDE2
S21400233010FE03004922000020FE030030FE0300CA
S21400234040FE030060FE030070FE030080FE0300F4
S21400235090FE030090B58BB000AF814B1A68814B9E
S214002360134481481946814B98473B1D1846002167
S2140023701E227F4B9847FF237B80794B1B68794A48
S214002380D35C7C4819467C4B9847754B1B68754A4E
S214002390D35C0A2B40F0F282714B00221A603A1D81
S2140023A0BB1C70487549764CA04700237B621EE034
S2140023B03A1D7B6A13441B7887F82330714B1A68E2
S2140023C097F82330013313441B7803F00303022BE2
S2140023D003D197F82330203B01E097F82330DAB298
S2140023E0391D7B6A0B441A707B6A01337B623A1D87
S2140023F07B6A13441B78002BDAD13B1D18466249D2
S214002400624B98470346002B19D17B881BB2604865
S2140024101946594B98477B881BB2002B0BDB7B88F1
S2140024201BB2642B07DCBB1C5A4819460222012348
S214002430594CA047A7E259484F4B9847A3E23B1D8B
S21400244018465749514B98470346002B19D17B88AD
S2140024501BB254481946484B98477B881BB2002B42
S2140024600BDB7B881BB2642B07DCBB1C4E48194673
S21400247002220123484CA04785E248483E4B984735
S21400248081E23B1D18464949404B98470346002BBE
S21400249019D17B881BB246481946374B98477B882C
S2140024A01BB2002B0BDB7B881BB2642B07DCBB1C30
S2140024B04048194602220123374CA04763E23748BA
S2140024C02D4B98475FE23B1D18463B492F4B9847DC
S2140024D00346002B40F086803848274B9847384BF9
S2140024E098473848244B9847374B9B6A1B88374891
S2140024F01946214B9847344BDB6A1B8834481946EB
S2140025001D4B9847304B1B6B1B88324819461A4B9D
S21400251098472D4B1B6A1B882F481946164B984721
S2140025202E48154B98472E4B9B6A1B882748194602
S214002530114B98472A4BDB6A1B88254819460E4BD9
S2140025409847274B1B6B1B88224819460A4B98470F
S214002550234B1B6A1B8820481946074B984712E2F4
S214002560BC0D0020600E002000800240F119000023
S21400257041830000E003010001830000E403010042
S214002580D184000098040020EC03010003860000BC
S214002590F003010010FE0300CD5C000018040100EB
S2140025A0380401003C04010020FE0300640401001E
S2140025B06804010030FE0300900401009804010046
S2140025C0A1220000B80401002C0F0020CC0401005A
S2140025D0D4040100DC040100E4040100F40401005A
S2140025E02C0E00203B1D18467F49804B984703461B
S2140025F0002B6AD17E487F4B98477F487F497D4BAA
S21400260098477E4BB3F8A0307D481946794B9847DB
S2140026107A4BB3F8A6307B481946764B98477A48EB
S214002620744B98477948734B9847794B9B6A1B883D
S214002630784819466F4B9847754BDB6A1B88764877
S21400264019466C4B9847724B1B6B1B887348194690
S214002650684B98476E4B1B6A1B8871481946654B3A
S21400266098476B4B93F826306E481946614B98474F
S2140026706548604B98476C485E4B98476B4B98474D
S21400268003466B4819465B4B98476A4B9847034688
S21400269069481946574B9847684B98470346684819
S2140026A01946544B9847674B984703466648194661
S2140026B0504B9847654B98470346654819464D4B1F
S2140026C0984751484B4B98475DE13B1D184661497A
S2140026D0464B98470346002B19D17B881BB25E48B1
S2140026E01946444B98477B881BB2002B0BDB7B8834
S2140026F01BB2642B07DCBB1C584819460222012378
S214002700574CA0473FE157483A4B98473BE13B1DA3
S21400271018465549354B98470346002B19D17B88F8
S2140027201BB252481946334B98477B881BB2002B86
S2140027300BDB7B881BB2642B07DCBB1C47481946A7
S21400274002220123464CA0471DE14648294B9847E4
S21400275019E13B1D18464649244B98470346002B73
S21400276005D14448234B9847434B98470BE13B1D04
S214002770184642491D4B98470346002B15D17B88C7
S214002780002B03D07B881BB2012B0AD17B881BB29F
S214002790002B0CBF00230123DAB21D4B83F8262042
S2140027A0F1E03748134B9847EDE03B1D1846354996
S2140027B00E4B98470346002B6ED17B881BB2012B2D
S2140027C006D10E4B304A1A6030480A4B9847DAE07A
S2140027D07B881BB2022B40F0D680084B2C4A1A602E
S2140027E02C48044B9847CEE00C05010003860000F9
S2140027F0140501000183000038050100800E00204A
S2140028004C050100640501008005010098050100E3
S2140028102C0F0020CC040100D4040100DC040100CD
S214002820E4040100AC050100C0050100591B0000CE
S214002830D00501006D1B0000DC050100811B0000B7
S214002840E8050100951B0000F4050100A91B000027
S214002850000601000C0601001C06010040FE0300F5
S214002860CD5C00001804010048060100580601006F
S2140028708406010090060100191F0000A80601004A
S214002880B0060100CC06010043563700D40601000E
S21400289050574D00F00601003B1D18463B493C4B87
S2140028A098470346002B0CD13A4BB3F8A0301A4693
S2140028B0384BB3F8A630384811461A46374B984777
S2140028C061E03B1D18463649314B98470346002BBE
S2140028D019D17B881BB2002B11DB7B881BB2642BC3
S2140028E00DDCBB1C2F481946022201232E4CA047A4
S2140028F07B881BB22D481946284B984743E02C4846
S214002900264B98473FE03B1D18462A49204B9847E0
S2140029100346002B29D17B881BB2032B20DC7B8847
S2140029201BB2002B1CDD7B88DAB2234B1A70234BBC
S21400293001221A707B881BB2022B08D0032B0AD008
S214002940012B00D010E01E48144B984707E01D48A6
S214002950124B984703E01C48104B984700BF03E013
S2140029601A480E4B98470EE00DE07B881BB23A1DC6
S214002970174811461A46094B984704E0154B1B6842
S2140029805A1C144B1A602C37BD4690BD0C0701002C
S21400299003860000800E002014070100018300005B
S2140029A02C070100A0FE0300CD5C00003C070100E0
S2140029B0180401006007010094040020950400201C
S2140029C064070100800701009C070100B8070100AA
S2140029D0D8070100BC0D002090B585B000AF0C4BA9
S2140029E03C460FCB84E80F003B460A4819460A4B84
S2140029F0984708480121094B984742200121084B77
S214002A0098474220074B98471437BD4690BD00BFF5
S214002A10FC07010000800240E1210000E5180000EC
S214002A20751A0000451A000080B489B000AF7860BF
S214002A307B68FB61FB69BB61BB695A09FB697B610B
S214002A407B6903F01F03012101FA03F33A61FB607F
S214002A503B69BB60BB6803F5001303F5E1635B02EB
S214002A60FA685A602437BD465DF8047B704700BF9D
S214002A7080B489B000AF78607B68FB61FB69BB619E
S214002A80BB695A09FB697B617B6903F01F0301215F
S214002A9001FA03F33A61FB603B69BB60BB6803F570
S214002AA0001303F5E1635B02FA689A602437BD46BB
S214002AB05DF8047B704700BF80B48DB000AF7860CF
S214002AC039607B68FB623B68BB62FB6A7B627B6A41
S214002AD05A09FB6A3B623B6A03F01F03012101FAB5
S214002AE003F3FA61BB61BB6A7B61FB693B613B69CF
S214002AF003F5001303F5E1635B02FB607B6903F0FB
S214002B000803002B03D0FB68BA695A6702E0FB682B
S214002B10BA699A677B6903F01003002B04D0FB6840
S214002B20BA69C3F8842003E0FB68BA69C3F8882052
S214002B307B6903F04003002B04D0FB68BA69C3F836
S214002B40C42003E0FB68BA69C3F8C8207B6903F0B9
S214002B508003002B04D0FB68BA69C3F8042103E0A5
S214002B60FB68BA69C3F808217B6903F00103002BF0
S214002B7003D0FB68BA695A6102E0FB68BA699A61D9
S214002B807B6903F00203002B03D0FB68BA695A6224
S214002B9002E0FB68BA699A627B6903F00403002BC3
S214002BA003D0FB68BA695A6302E0FB68BA699A63A5
S214002BB03437BD465DF8047B704700BF80B495B0DF
S214002BC000AF78600B46FB707B68FB64FB7887F889
S214002BD04B3097F84B30012B2DD1FB6C7B647B6C14
S214002BE03B643B6C5B09FB63FB6B03F5001303F56F
S214002BF0E1635B02FA6CBA63BA6B02F01F02012152
S214002C0001FA02F25A64FB6C7B637B6B3B633B6BA3
S214002C105B09FB62FB6A03F5001303F5E1635B02E5
S214002C20FA6CBA62BA6A02F01F02012101FA02F2D5
S214002C30C3F8682130E097F84B30002B2CD1FB6CA2
S214002C407B627B6A3B623B6A5B09FB61FB6903F55F
S214002C50001303F5E1635B02FA6CBA61BA6902F02D
S214002C601F02012101FA02F29A64FB6C7B617B6908
S214002C703B613B695B09FB60FB6803F5001303F5EA
S214002C80E1635B02FA6CBA60BA6802F01F020121C7
S214002C9001FA02F2C3F864215437BD465DF8047B9E
S214002CA0704700BF80B582B000AF78607B68013B9C
S214002CB0032B65D801A252F823F000BF632D000055
S214002CC0CD2C0000EB2C0000092D00002020012157
S214002CD02D4B984720202D4B9847212001212A4B29
S214002CE098472120294B98474AE020200121264B6F
S214002CF098472020254B984721200121224B9847B2
S214002D002120224B98473BE0142000211E4B984779
S214002D1014201E4B9847132000211B4B9847132066
S214002D201A4B984712200021174B98471220174B32
S214002D30984711200021144B98471120134B9847B1
S214002D404F200121124B98474F2008210E4B9847E1
S214002D500A2001210E4B98470A2008210A4B984763
S214002D600EE040200321084B98474020074B984729
S214002D7041200321044B98474120044B984700BF4D
S214002D800837BD4680BD00BFB92A0000712A000082
S214002D90BD2B000080B582B000AF78607B68013B39
S214002DA0032B2DD801A252F823F000BFF32D00000C
S214002DB0BD2D0000CB2D0000D92D00002020124B89
S214002DC098472120104B98471AE020200E4B984732
S214002DD021200D4B984713E014200B4B98471320E7
S214002DE0094B98471220084B98471120064B9847E6
S214002DF006E04020044B98474120034B984700BF0D
S214002E000837BD4680BD00BF292A000080B500AF48
S214002E100848094B984707480221084A084B984734
S214002E20044802214022074B984702480221064BDD
S214002E30984780BD0000014099480000020609003E
S214002E407114000079150000A914000080B500AFC9
S214002E5002480221024B984780BD00BF0000014097
S214002E60C914000080B500AF0120054B98470548FF
S214002E70054B984703480021044A054B984780BDF8
S214002E80A52C0000004001409948000003C0060041
S214002E907114000080B400AFBD465DF8047B704737
S214002EA0F0B583B000AF78603F4B93F82630002B28
S214002EB06AD03E4BB3F8A6203C4BD3F8A8301B880C
S214002EC09A4261D33A483B4B984702462023B2FBCE
S214002ED0F3F2394B1046984704460D46374B786850
S214002EE098470246364B10463649984703461A46D8
S214002EF0354B1046984702460B46344E1046194648
S214002F0025A3D3E90023B04702460B46304E1046B1
S214002F10194623A3D3E90023B04702460B462B4E9F
S214002F2020462946B04702460B462A4C104619460C
S214002F30A04703461E4800211A46274B98471C48C0
S214002F401C4B984702460823B2FBF3F35A08234B60
S214002F50A3FB02135B091A46214B1A60204B1B6821
S214002F60134800211A461F4B9847114800211E4B54
S214002F709847034603F48033002B04D10C48002105
S214002F801A4B984704E003E009480021184B98477D
S214002F900C37BD46F0BD00BF92CB7F48BF7D4D3F8E
S214002FA02F6EA301BC05523F2C0F0020800E002080
S214002FB0004001402D460000C572000089790000DF
S214002FC0997B00000000C84209730000B17300003E
S214002FD04D700000D577000031150000EBA00EEA1A
S214002FE0C00D002055150000A1150000A914000012
S214002FF0C9140000AFF3008080B500AF074B9847B8
S214003000074B084A9A62064B074ADA62044B074A9D
S2140030101A63034B064A1A6280BD00BF652E000085
S2140030202C0F002010FE030020FE030030FE0300DD
S21400303040FE030080B483B000AF0346FB71FB790B
S2140030409AB2104BDA830F4BDB8B1A460D4B1B6A7A
S2140030501B88D31A3233632B0BDC0A4BDB8B1A46E6
S214003060084B1B6A1B88D31A323323EAE3739BB2DE
S21400307000E06423034A93840C37BD465DF8047B66
S214003080704700BF2C0F002080B500AF074B984755
S214003090074B084A9A62064B074ADA62044B074A0D
S2140030A01A63034B064A1A6280BD00BF952E0000C5
S2140030B02C0E002060FE030070FE030080FE03005E
S2140030C090FE030080B483B000AF0346FB71084B4C
S2140030D097F907205209F97901F01F01012000FA3B
S2140030E001F143F822100C37BD465DF8047B7047AB
S2140030F000E100E080B483B000AF0346FB71094BEB
S21400310097F907205209F97901F01F01012000FA0A
S21400311001F1203243F822100C37BD465DF8047BDF
S214003120704700BF00E100E080B483B000AF034604
S214003130FB71094B97F907205209F97901F01F0135
S214003140012000FA01F1603243F822100C37BD4628
S2140031505DF8047B704700BF00E100E080B483B0F8
S21400316000AF03463960FB7197F90730002B0BDA86
S2140031700D49FB7903F00F03043B3A68D2B2120103
S214003180D2B20B441A7609E0084997F907303A6834
S214003190D2B21201D2B20B4483F800230C37BD46DC
S2140031A05DF8047B704700BF00ED00E000E100E042
S2140031B080B588B000AF786039603B681B68BB603C
S2140031C03B685B68FB603B689B683B613B681B7BBE
S2140031D07B610023BB617A68304B9A4213D17868D2
S2140031E02F4B984778682F4B9847034607F10802FD
S2140031F0786811461A462C4B984778682B4B9847A8
S21400320078682B4B98477A682A4B9A4213D178688D
S214003210234B98477868234B9847034607F10802E4
S214003220786811461A46204B984778681F4B98478F
S21400323078681F4B98477A681F4B9A4213D1786874
S214003240174B98477868174B9847034607F10802CC
S214003250786811461A46144B98477868134B984777
S2140032607868134B98477A68144B9A4213D178685B
S2140032700B4B984778680B4B9847034607F10802B4
S214003280786811461A46084B98477868074B98475F
S2140032907868074B98472037BD4680BD00400240FF
S2140032A0994800002D460000F11600008518000021
S2140032B0B51800000080024000C002400000034035
S2140032C090B585B000AF084B3C460FCB84E80F00A6
S2140032D03B4606481946064B984704480121054BCD
S2140032E098471437BD4690BD0C08010000400240C8
S2140032F0B1310000E518000080B500AF0220074B92
S2140033009847074B074A1A60074B98474120074BD8
S2140033109847034B064AC3F8A82080BDA52C00009A
S214003320800E002043563700C1320000C530000032
S214003330A0FE030080B500AF0348044B9847412029
S214003340034B984780BD00BF00400240952D00000B
S214003350F530000080B500AF094B9847094B0A4A84
S2140033601A603920094B98473920094B984739206D
S2140033700421084B98473920074B984780BD00BF6B
S2140033800D2E0000800E002050574D00F530000036
S214003390293100005D310000C530000080B500AF67
S2140033A0024B98473920024B984780BD4D2E0000AF
S2140033B0F530000080B400AF034B044AC3F8A820E1
S2140033C0BD465DF8047B7047800E0020A0FE03001B
S2140033D090B59BB004AF3B4B1A683B4B13443B483D
S2140033E019463B4B9847FF23A7F85630354B1B68CA
S2140033F0354AD35C0A2B51D13B46184600213C2265
S214003400344B984707F14003184600211422314BED
S21400341098472C4B00221A6007F140023B462A4888
S2140034202D492E4CA04707F1400318462C492D4B3A
S21400343098470346002B2FD13A4607F13F032A4907
S21400344000912A4901912A490291104629492A4A9F
S214003450224CA04797F83F30522B02D0542B05D071
S21400346009E0264B012283F8A22004E0234B002229
S21400347083F8A22000BF214BB3F8A030642202FBE1
S21400348003F31F4A82FB03121A441212DB17D31AE5
S214003490DAB21A4B83F89D2000BF0FE0094B1B6879
S2140034A03B2B05D8074B1B685A1C064B1A6005E0D9
S2140034B01448154B9847034B00221A605C37BD46EC
S2140034C090BD00BFC40D00206C0F002000400240DD
S2140034D0F1190000418300001C080100D18400009F
S2140034E02808010003860000260F0020230F002076
S2140034F0240F002030080100200F0020800E00203E
S214003500B7600BB63C0801000183000080B483B0AE
S21400351000AF0346FB71FB79062B21D801A252F8B7
S21400352023F000BF41350000453500004B35000054
S2140035305135000055350000593500005D35000056
S2140035400B4B0EE04FF400430BE04FF4004308E053
S214003550084B06E0084B04E0084B02E0084B00E08E
S214003560002318460C37BD465DF8047B704700BF45
S214003570001BB70000B4C40400093D0040420F0021
S21400358038C1010080B500AF0020034B98470346C2
S2140035909B00184680BD00BF0D35000080B500AF0B
S2140035A0024B98470346184680BD00BF853500008D
S2140035B0B0B58EB000AF0346FB7111233B7307F125
S2140035C00C0339481946394B98474F237B63002331
S2140035D087F8333097F83330002B16D07B6BFB62BE
S2140035E0FB6ABB62BB6A5B097B627B6A03F50013FE
S2140035F003F5E1635B027A6B3A623A6A02F01F02F5
S214003600012101FA02F25A6515E07B6BFB61FB694A
S214003610BB61BB695B097B617B6903F5001303F53E
S214003620E1635B027A6B3A613A6902F01F0201219C
S21400363001FA02F29A65FB791B4819461C4B98471B
S2140036401C4B9847034618464FF0000102460B46AF
S2140036509D0045EA9275940022462B46801841EB61
S21400366003010FA3D3E90023121843EB0103124C06
S21400367010461946114A4FF00003A04702460B4673
S214003680134618460E4B984707F10C030648194692
S2140036900C4B98473837BD46B0BD00BFAFF300802F
S2140036A07F9FD5000000000000C00240690A0000AD
S2140036B0490A00009D350000D17C0000809FD5009F
S2140036C001000020850A00002DE9F04399B000AF04
S2140036D00346FB7111233B7307F10C03664819463A
S2140036E0664B98474F23FB65012387F85B3097F8B6
S2140036F05B30002B16D0FB6D7B657B6D3B653B6DB1
S2140037005B09FB64FB6C03F5001303F5E1635B02E6
S214003710FA6DBA64BA6C02F01F02012101FA02F2D5
S2140037205A6515E0FB6D7B647B6C3B643B6C5B0908
S214003730FB63FB6B03F5001303F5E1635B02FA6DB5
S214003740BA63BA6B02F01F02012101FA02F29A650F
S2140037504B4B9847034618464FF0000102460B466F
S2140037604FEA830949EA92794FEA820842464B4675
S214003770801841EB03013EA3D3E90023121843EB64
S2140037800103404E104619463F4A4FF00003B0472B
S21400379002460B46134618463C4B9847FB7936487C
S2140037A019463B4B98474F237B63012387F83330FA
S2140037B097F83330002B16D07B6BFB62FB6ABB623C
S2140037C0BB6A5B097B627B6A03F5001303F5E16362
S2140037D05B027A6B3A623A6A02F01F02012101FA32
S2140037E002F25A6515E07B6BFB61FB69BB61BB6946
S2140037F05B097B617B6903F5001303F5E1635B02FC
S2140038007A6B3A613A6902F01F02012101FA02F26C
S2140038109A651B4B9847034618464FF00001024630
S2140038200B469D0045EA9275940022462B4680186A
S21400383041EB03010EA3D3E90023121843EB010367
S214003840104C10461946104A4FF00003A047024697
S2140038500B46134618460D4B984707F10C030648CF
S21400386019460C4B98476437BD46BDE8F08300BF49
S2140038707F9FD5000000000000C00240690A0000DB
S2140038809D350000D17C0000809FD50001000020FF
S214003890490A0000850A000080B582B000AF0346E2
S2140038A0FB71FB7903F00F03FB71FB7903F0070351
S2140038B0DBB263F04F03DBB2DBB21846024B98472D
S2140038C00837BD4680BD00BFB135000080B582B068
S2140038D000AF0346FB71FB7903F07F03FB71FB79B6
S2140038E01B09DBB243F01003DBB21846054B9847C2
S2140038F0FB7903F00F03DBB21846024B98470837F4
S214003900BD4680BDB135000080B500AF0420014B38
S214003910984780BDA52C0000B0B58CB002AF3A46E3
S214003920264B14461D460FCD0FC495E803002060B5
S214003930043421700020224B98470020214B9847E2
S2140039403B461846204B9847204BDB8B1A461F4BAE
S2140039509B8C1E49096A0988084639460090084625
S2140039601B491C4CA0470020154B98470220154BBE
S21400397098473B461846144B9847144B9B6A1B883F
S2140039801A46124BDB6A1B881049096B09880846E1
S21400399039460090084610490E4CA0470020084BB8
S2140039A098470320074B98473B461846064B9847D0
S2140039B00D200A4B98472837BD46B0BD5008010079
S2140039C0CD38000099380000850800002C0F002034
S2140039D068080100898400008C080100B53A0000E0
S2140039E090B58BB000AF0020284B98470120284B9D
S2140039F09847284BB3F8A0303A46104626491A4650
S214003A00264B98473B461846254B98470620254B9D
S214003A1098470620234B98471E4BB3F8A6301A4605
S214003A201C4B93F8A330394608461F491B4CA04749
S214003A303B4618461A4B9847164B93F89D303A4625
S214003A4010461A491A46154B984700200F4B9847C0
S214003A5002200F4B98473B461846114B98470D4B94
S214003A6093F8A4303A46104611491A460B4B98472D
S214003A700020064B98470320054B98473B461846C0
S214003A80074B98472C37BD4690BD00BFCD38000089
S214003A9099380000800E0020A008010089840000EC
S214003AA085080000C9360000AC080100B408010013
S214003AB0C408010080B584B000AF78600023FB60C6
S214003AC005E00020054B9847FB680133FB60FA6869
S214003AD07B689A42F5DB1037BD4680BDC9360000CC
S214003AE080B584B000AFF871B9717A713B71FB791B
S214003AF0BB735DE0BB79FB7353E0FB7B03F007030E
S214003B00DBB263F04F03DBB2DBB218462C4B9847B0
S214003B10BB7B18462B4B9847BB7BBA6913441A7875
S214003B20294BA3FB0213D21A520813449B087B733B
S214003B303A79FB7BD31A0133DBB2DB00BB727A7BAC
S214003B40BB7A9A4202D908237B7305E07A7BBB7A5C
S214003B50D31ADBB208337B7300233B737B7BFB7289
S214003B6007E03B7B5B00DBB201333B737B7B013BB7
S214003B707B737B7B002BF4D1FB7AC3F10803FB72CB
S214003B8005E03B7B5B003B73FB7A013BFB72FB7AF9
S214003B90002BF6D13B7B18460C4B9847FB7B01333A
S214003BA0FB73FA7B3B799A42A7D9BB7B0133BB7385
S214003BB0BA7B7B799A429DD31037BD4680BD00BF45
S214003BC0B1350000CD38000025499224C9360000E2
S214003BD080B483B000AFEFF310833B603B68002BEC
S214003BE014BF00230123DBB27B6072B6BFF35F8F86
S214003BF0044B00221A707B6818460C37BD465DF8E9
S214003C00047B70478C04002080B483B000AF7860DB
S214003C107B68002B0CBF00230123DBB218460C3751
S214003C20BD465DF8047B704780B582B000AF786013
S214003C307868074B98470346002B05D0054B0122B2
S214003C401A70BFF35F8F62B60837BD4680BD00BFEF
S214003C50093C00008C04002080B582B000AF074B02
S214003C6098477860064B074A9A61054B064A1A62DF
S214003C707868064B98470837BD4680BDD13B0000A4
S214003C8000080E40200000AA07030100293C00009F
S214003C9080B582B000AF074B98477860064B074A5E
S214003CA09A61054B064A1A627868064B98470837A9
S214003CB0BD4680BDD13B000000040F40200000AA96
S214003CC00DA10500293C000080B582B000AF0A4B6C
S214003CD098477860094B5B6A3B60084B084A9A61D4
S214003CE0064B3A6842F005025A627868054B9847D8
S214003CF00837BD4680BD00BFD13B000000040F4022
S214003D00240000AA293C000080B582B000AF0A4B10
S214003D1098477860094B9B6D3B60084B084A9A6150
S214003D20064B3A6842F001029A657868054B984758
S214003D300837BD4680BD00BFD13B000000040F40E1
S214003D40580000AA293C000080B582B000AF0A4B9C
S214003D5098477860094B1B6D3B60084B084A9A6190
S214003D60064B3A6842F001021A657868054B984798
S214003D700837BD4680BD00BFD13B000000080E409E
S214003D80500000AA293C000080B582B000AF0C4B62
S214003D90984778600B4B9B6C3B603B6823F4407302
S214003DA03B60084B084A9A61064B3A6842F00102AB
S214003DB09A647868054B98470837BD4680BD00BFB3
S214003DC0D13B000000080E40480000AA293C000035
S214003DD080B483B000AFEFF310833B603B68002BEA
S214003DE014BF00230123DBB27B6072B6BFF35F8F84
S214003DF0044B00221A707B6818460C37BD465DF8E7
S214003E00047B70478C04002080B483B000AF7860D9
S214003E107B68002B0CBF00230123DBB218460C374F
S214003E20BD465DF8047B704780B582B000AF786011
S214003E307868074B98470346002B05D0054B0122B0
S214003E401A70BFF35F8F62B60837BD4680BD00BFED
S214003E50093E00008C04002080B584B000AF786076
S214003E6039600E4B9847F8600D4B3A68093292005D
S214003E7002F47F7242F02A429A6109497B681B6805
S214003E8043F001023B6808339B000B445A60F86815
S214003E90044B98471037BD4680BD00BFD13D00009B
S214003EA000080E40293E000080B483B000AFEFF358
S214003EB010833B603B68002B14BF00230123DBB25A
S214003EC07B6072B6BFF35F8F044B00221A707B686C
S214003ED018460C37BD465DF8047B70478C040020FE
S214003EE080B483B000AF78607B68002B0CBF0023E3
S214003EF00123DBB218460C37BD465DF8047B7047DD
S214003F0080B582B000AF78607868074B9847034664
S214003F10002B05D0054B01221A70BFF35F8F62B6E7
S214003F200837BD4680BD00BFE13E00008C0400207F
S214003F3080B582B000AF0346FB71FB79062B23D811
S214003F4001A252F823F000BF653F00006B3F00005F
S214003F50713F0000773F00007D3F0000833F000078
S214003F60893F00000A4B98470FE00A4B98470CE041
S214003F70094B984709E0094B984706E0084B9847D5
S214003F8003E0084B984700E000BF0837BD4680BDF9
S214003F90593C0000913C0000C93C0000493D00002F
S214003FA0893D0000093D000080B483B000AF0346A1
S214003FB0FB71FB79062B4FD801A252F823F000BF05
S214003FC0DD3F0000F13F0000054000001940000002
S214003FD02D4000004140000055400000224B5B6928
S214003FE003F00103002B0CBF00230123DBB234E0F7
S214003FF01E4B5B6903F00103002B0CBF002301235B
S214004000DBB22AE0194B5B6A03F00103002B0CBFFE
S21400401000230123DBB220E0134B1B6D03F00103EA
S214004020002B0CBF00230123DBB216E00E4B9B6C6B
S21400403003F00103002B0CBF00230123DBB20CE0CE
S2140040400A4B9B6D03F00103002B0CBF00230123DA
S214004050DBB202E0012300E0002318460C37BD4621
S2140040605DF8047B704700BF00080E4000040F4058
S21400407080B483B000AF0346FB71FB79062B21D8D2
S21400408001A252F823F000BFA5400000A94000009E
S214004090AF400000B5400000B9400000BD40000041
S2140040A0C14000000B4B0EE04FF400430BE04FF412
S2140040B0004308E0084B06E0084B04E0084B02E02B
S2140040C0084B00E0002318460C37BD465DF8047B1D
S2140040D0704700BF001BB70000B4C40400093D00D1
S2140040E040420F0038C1010080B582B000AF0346E1
S2140040F0FB7100BFFB791846054B9847034683F0D3
S2140041000103DBB2002BF5D10837BD4680BD00BFEA
S214004110A93F000080B483B000AF786039607B6848
S2140041201A683B680333012101FA03F31A437B68DC
S2140041301A600C37BD465DF8047B704780B586B0C4
S21400414000AFF8607A603B600B46FB72FB7A18465D
S2140041501D4B984703463A6802FB03F37B617A6976
S2140041607B68B2FBF3F37B61FB6800221A607A6916
S214004170164B9A420CD83B68082B09D83B685B0064
S2140041803B607B695B007B61F8680121104B9847B8
S2140041907A69104B9A4203D9F86800210C4B98476D
S2140041A0FB681A683B68013B19047B681B021943CD
S2140041B0FB7A5B000B43134343F07C52FB681A60A8
S2140041C01837BD4680BD00BF71400000FFB3C40471
S2140041D0154100007FFE210A80B483B000AF7860EE
S2140041E0094B5A697B680633012101FA03F3134031
S2140041F0002B0CBF00230123DBB218460C37BD464C
S2140042005DF8047B704700BF00080E4080B582B0A2
S21400421000AF0346FB71FB79002B00D010E00020B6
S214004220094B9847034683F00103DBB2002B06D008
S2140042300020064B98470020054B9847FFE700BF35
S2140042400837BD4680BD00BFA93F0000313F0000D3
S214004250E940000090B585B000AF78607868144BF0
S21400426098470346002B1FD17B68002B00D00BE03D
S2140042700020104B984707F10C0318460021012236
S21400428004230D4CA04700BF07F10C0318467968BD
S2140042900A4B984700BF7868054B9847034683F05B
S2140042A00103DBB2002BF6D11437BD4690BD00BF2C
S2140042B0D94100000D4200003D410000593E00007B
S2140042C080B500AF0020034B984703469B00184676
S2140042D080BD00BF7140000080B500AF024B98471C
S2140042E00346184680BD00BFC142000080B500AF3F
S2140042F0024B98470346184680BD00BFC1420000E7
S21400430080B500AF024B98470346184680BD00BFF5
S214004310C142000080B500AF024B984703461846DE
S21400432080BD00BFC142000080B500AF024B984779
S2140043300346184680BD00BFC142000080B582B06B
S21400434000AF786001207968024B98470837BD4671
S21400435080BD00BF5144000080B582B000AF7860D9
S21400436001207968024B98470837BD4680BD00BFDC
S214004370B544000080B582B000AF7860042079684C
S214004380024B98470837BD4680BD00BF5144000029
S21400439080B582B000AF786004207968024B9847F9
S2140043A00837BD4680BD00BFB544000080B582B06A
S2140043B000AF786005207968024B98470837BD46FD
S2140043C080BD00BF5144000080B582B000AF786069
S2140043D005207968024B98470837BD4680BD00BF68
S2140043E0B544000080B485B000AF7860084B1B6C05
S2140043F0FB60FA687B681343FB60054B054A9A65C9
S214004400034BFA681A641437BD465DF8047B7047A0
S21400441000000E40400000AA80B485B000AF78606F
S214004420094B1B6CFB607B68DB43FA681340FB6040
S214004430054B064A9A65044BFA681A641437BD465B
S2140044405DF8047B704700BF00000E40400000AAE5
S21400445080B584B000AF78603960124B9847F8603A
S2140044607B689A00104B13441B68BB603B680122B4
S21400447002FA03F3BA681343BB600C4B7A6808323F
S214004480920002F47F7242F02A429A657B689A0094
S214004490054B1344BA681A60F868054B98471037FE
S2140044A0BD4680BDA93E000020000E4000000E4024
S2140044B0013F000080B584B000AF78603960134BD0
S2140044C09847F8607B689A00114B13441B68BB60E2
S2140044D03B68012202FA03F3DB43BA681340BB6071
S2140044E00C4B7A680832920002F47F7242F02A423D
S2140044F09A657B689A00064B1344BA681A60F86897
S214004500054B98471037BD4680BD00BFA93E00004A
S21400451020000E4000000E40013F000080B584B031
S21400452000AF7860094B9847F860094B9B6A002BF0
S21400453002D10520074B9847F868074B984702209A
S2140045407968064B98471037BD4680BDA93E0000E7
S21400455000000E403D430000013F000051440000B3
S21400456080B584B000AF786002207968084B984721
S214004570084B9847F860084B9B6A002B02D1052031
S214004580064B9847F868064B98471037BD4680BDDF
S214004590B5440000A93E000000000E40594300004C
S2140045A0013F000080B584B000AF7860094B9847A3
S2140045B0F860094BDB6A002B02D10620074B9847B0
S2140045C0F868074B984703207968064B98471037DA
S2140045D0BD4680BDA93E000000000E403D430000E1
S2140045E0013F00005144000080B584B000AF786001
S2140045F003207968084B9847084B9847F860084BA3
S214004600DB6A002B02D10620064B9847F868064B5B
S21400461098471037BD4680BDB5440000A93E00004F
S21400462000000E4059430000013F000080B582B0F4
S21400463000AF78607B686C4A934200F0C0806A4A9C
S214004640934263D8694A934200F0B980674A93421E
S21400465030D8674A934200F0B280654A934214D835
S214004660644A934200F0AB80624A934204D8B3F1A6
S214004670402F00F0A480B2E05F4A934200F09F8093
S2140046805E4A934200F09B80A9E05D4A934200F0A8
S21400469096805B4A934204D85A4A934200F08F8031
S2140046A09DE0594A934200F08A80584A934200F0AF
S2140046B0868094E0564A934200F08180544A9342A2
S2140046C010D8544A93427AD0524A934203D8524A58
S2140046D0934274D083E0514A934270D0504A93423A
S2140046E06DD07CE04F4A934269D04E4A934206D83A
S2140046F04D4A934263D04D4A934260D06FE04C4A95
S21400470093425CD04B4A934259D068E04A4A93425F
S2140047105DD0494A934227D8484A934253D0474AE5
S214004720934210D8464A934249D0454A934203D80A
S214004730444A934243D052E0434A934243D0434ACA
S214004740934240D04BE0424A93423CD0404A934288
S21400475003D8404A934236D041E03F4A934232D093
S2140047603E4A93422FD03AE03D4A934233D03C4AE9
S214004770934210D83B4A934229D03A4A934203D8F0
S214004780394A934223D02AE0384A93421FD0384A07
S21400479093421CD023E0374A93421CD0354A9342BA
S2140047A006D8354A934216D0344A934213D016E0C0
S2140047B0334A93420FD0334A93420CD00FE0324B29
S2140047C0984703460CE0314B9847034608E0304BC9
S2140047D09847034604E02F4B9847034600E0002323
S2140047E018460837BD4680BD00800740008002405E
S2140047F00080014000800040000001400040014071
S21400480000C001400084014000C401400040024056
S214004810000004400000034000C002400080034047
S21400482000C00340008006400000064000400640EE
S21400483000C006400000074000000E4000100A407E
S2140048400000084000C0074000000A4000040A407C
S21400485000400A4000200A4000500A4000600A401B
S21400486000000F4000080E4000040E40000C0E40F2
S21400487000100E40000C0F4000040F4000080F40D0
S21400488000100F4000140F40ED42000001430000EE
S214004890154300002943000080B582B000AF786061
S2140048A07B68A94A934200F04681A74A93426CD897
S2140048B0A64A934200F00A81A44A934230D8A44AFA
S2140048C0934200F0EC80A24A934214D8A14A934245
S2140048D000F0D3809F4A934204D8B3F1402F00F0F3
S2140048E0C880E4E19C4A934200F0CB809B4A934206
S2140048F000F0CE80DBE19A4A934200F0D880984AD6
S214004900934204D8974A934200F0CD80CFE1964A6E
S214004910934200F0D080954A934200F0D080C6E1E2
S214004920934A934200F0EF80914A934214D8914AFA
S214004930934200F0D9808F4A934204D88E4A93421D
S21400494000F0CB80B3E18D4A934200F0D4808C4ACD
S214004950934200F0D480AAE18A4A934200F0DF80B6
S214004960884A934208D8884A934200F0D080874A03
S214004970934200F0D0809AE1854A934200F0D380BB
S214004980844A934200F0D38091E1834A934200F038
S2140049906281814A934233D8804A934200F03E8136
S2140049A07E4A934214D87E4A934200F025817C4A80
S2140049B0934204D87B4A934200F0C18077E17A4A5A
S2140049C0934200F01D81794A934200F020816EE107
S2140049D0774A934200F03481754A934208D8754A64
S2140049E0934200F01F81744A934200F022815EE1F8
S2140049F0724A934200F02B81714A934235D056E1B9
S214004A00704A934200F03B816E4A934214D86E4A35
S214004A10934200F028816C4A934204D86B4A934232
S214004A2000F01D8143E16A4A934200F02081694A02
S214004A30934200F020813AE1674A934200F02B81CE
S214004A40654A934208D8654A934200F01C81644A3E
S214004A50934200F01C812AE1624A934200F01F81D3
S214004A60614A934200F01F8121E109205F4B98477D
S214004A701DE100205E4B984719E101205C4B9847EA
S214004A8015E102205A4B984755205A4B98470EE19D
S214004A900320574B98475520564B984707E104206C
S214004AA0534B984703E10520514B9847FFE00620FB
S214004AB04F4B9847FBE007204D4B9847F7E0082000
S214004AC04B4B984704204B4B9847F0E00920484B47
S214004AD098470420474B9847E9E00A20444B9847FC
S214004AE00420444B9847E2E00B20414B98470420B3
S214004AF0404B9847DBE00C203D4B9847D7E00D2015
S214004B003B4B9847D3E00E20394B9847CFE00F2019
S214004B10374B9847CBE01020354B9847C7E011201D
S214004B20334B9847C3E01220314B9847BFE0132021
S214004B302F4B9847BBE015202D4B9847B7E0162023
S214004B402B4B9847B3E000BF008007400080024030
S214004B50008001400080004000000140004001400D
S214004B6000C001400084014000C4014000400240F3
S214004B70000004400000034000C0024000800340E4
S214004B8000C003400080064000000640004006408B
S214004B9000C006400000074000000E4000100A401B
S214004BA00000084000C0074000000A4000040A4019
S214004BB000500A4000200A4000400A4000600A40B8
S214004BC000000B4000000F4000080E4000040E409E
S214004BD0000C0E4000100E40000C0F4000040F406A
S214004BE000080F4000100F4000140F403D43000027
S214004BF01D450000E543000017202E4B984756E061
S214004C0001202D4B984700202C4B98474FE0022060
S214004C10294B98470120294B984748E00220274B0C
S214004C20984744E00020244B98470320234B98479E
S214004C303DE00420204B98470420204B984736E060
S214004C4003201D4B984705201C4B98472FE0062055
S214004C501A4B98472BE00020194B984727E0012075
S214004C60174B984723E00220154B98471FE0032078
S214004C70134B98471BE00420114B984717E0002081
S214004C80104B984713E001200E4B98470FE0022088
S214004C900C4B98470BE003200A4B984707E004208C
S214004CA0084B984703E00520064B984700BF083797
S214004CB0BD4680BD1D4500003D430000A5450000E3
S214004CC075430000AD43000080B582B000AF786049
S214004CD07B68A74A934200F03481A54A93426CD879
S214004CE0A44A934200F00181A24A934230D8A24AD5
S214004CF0934200F0E680A04A934214D89F4A93421B
S214004D0000F0D3809D4A934204D8B3F1402F00F0C0
S214004D10C880D7E19A4A934200F0CB80994A9342E2
S214004D2000F0CB80CEE1984A934200F0D280964ABB
S214004D30934204D8954A934200F0C780C2E1944A51
S214004D40934200F0CA80934A934200F0CA80B9E1C9
S214004D50914A934200F0DD808F4A934214D88F4ADE
S214004D60934200F0CA808D4A934204D88C4A9342FC
S214004D7000F0BF80A6E18B4A934200F0C2808A4AC8
S214004D80934200F0C2809DE1884A934200F0CD80B5
S214004D90864A934208D8864A934200F0BE80854AE7
S214004DA0934200F0BE808DE1834A934200F0C180BA
S214004DB0824A934200F0C18084E1814A934200F027
S214004DC04C817F4A934233D87E4A934200F0288132
S214004DD07C4A934214D87C4A934200F0BA807A4ABE
S214004DE0934204D8794A934200F0AF806AE1784A49
S214004DF0934200F0B280774A934200F0B28061E1BD
S214004E00754A934200F01E81734A934208D8734A4B
S214004E10934200F00981724A934200F00C8151E1FE
S214004E20704A934200F015816F4A934235D049E1AB
S214004E306E4A934200F025816C4A934214D86C4A1D
S214004E40934200F012816A4A934204D8694A934218
S214004E5000F0078136E1684A934200F00A81674A0B
S214004E60934200F00A812DE1654A934200F01581D5
S214004E70634A934208D8634A934200F00681624A26
S214004E80934200F006811DE1604A934200F00981DA
S214004E905F4A934200F0098114E109205D4B984770
S214004EA007E100205C4B984703E101205A4B9847E6
S214004EB0FFE00220584B9847FBE00320564B9847EC
S214004EC0F7E00420544B9847F3E00520524B9847F0
S214004ED0EFE00620504B9847EBE007204E4B9847F4
S214004EE0E7E008204C4B9847E3E009204A4B9847F8
S214004EF0DFE00A20484B9847DBE00B20464B9847FC
S214004F00D7E00C20444B9847D3E00D20424B9847FF
S214004F10CFE00E20404B9847CBE00F203E4B984703
S214004F20C7E010203C4B9847C3E011203A4B984707
S214004F30BFE01220384B9847BBE01320364B98470B
S214004F40B7E01520344B9847B3E01620324B98470D
S214004F50AFE01720304B9847ABE000202F4B984728
S214004F60A7E002202B4B984701202C4B9847A0E047
S214004F700080074000800240008001400080004022
S214004F80000001400040014000C001400084014094
S214004F9000C40140004002400000044000000340FE
S214004FA000C002400080034000C00340008006406E
S214004FB0000006400040064000C0064000000740D3
S214004FC000000E4000100A400000084000C00740E5
S214004FD000000A4000040A4000500A4000200A4030
S214004FE000400A4000600A4000000B4000000F40EE
S214004FF000080E4000040E40000C0E4000100E404C
S214005000000C0F4000040F4000080F4000100F4037
S21400501000140F405943000061450000E9450000B8
S21400502002202A4B984744E00020294B984703204B
S214005030264B98473DE00420254B98470420234BF9
S214005040984736E00320224B984705201F4B984789
S2140050502FE006201D4B98472BE000201D4B98475D
S21400506027E001201B4B984723E00220194B984766
S2140050701FE00320174B98471BE00420154B98476A
S21400508017E00020144B984713E00120124B984776
S2140050900FE00220104B98470BE003200E4B98477A
S2140050A007E004200C4B984703E005200A4B98477E
S2140050B000BF0A4B9B6A03F00B03002B02D17F2034
S2140050C0074B98470837BD4680BD00BFE94500003E
S2140050D05943000091430000C943000000000E4001
S2140050E01944000080B584B000AF7860074B98473D
S2140050F0F860074B4FF02A429A65054B7A681A60AB
S214005100F868044B98471037BD4680BDA93E00009E
S21400511000000E40013F000080B586B000AF0023BF
S2140051207B610023FB742B482B4B9847294B0122AD
S2140051309A6000BF274BDB6803F00103002BF9D011
S214005140264B98470246264B9A420DD801237B6190
S214005150224B98470246234B9A4207D92248234BB4
S21400516098470123FB7401E000237B610020204B5D
S21400517098471A4B98470246FB7C104679691A46B0
S2140051801C4B984702201C4B9847174BBB607B690B
S2140051907B6001233B603B68002B04D1B8687968CC
S2140051A0164B984704E0B8687968154A154B984737
S2140051B000BF0D48144B9847034603F00103002B2D
S2140051C0F7D0124B9847F860F868114B9847183795
S2140051D0BD4680BD00040A4099480000D942000040
S2140051E0001BB70000127A0000000F40F5570000C1
S2140051F055420000B9590000E55000009D570000D8
S21400520080A90300F956000025580000A93E0000BA
S214005210013F000080B500AF0148024B984780BDB3
S21400522000100E409948000080B489B000AF786046
S2140052307B68FB61FB69BB61BB695A09FB697B61E3
S2140052407B6903F01F03012101FA03F33A61FB6057
S2140052503B69BB60BB6803F5001303F5E1635B02C3
S214005260FA689A602437BD465DF8047B704700BF35
S21400527080B48DB000AF786039607B68FB623B68B5
S214005280BB62FB6A7B627B6A5A09FB6A3B623B6ACB
S21400529003F01F03012101FA03F3FA61BB61BB6A45
S2140052A07B61FB693B613B6903F5001303F5E16332
S2140052B05B02FB607B6903F00803002B03D0FB68EE
S2140052C0BA695A6702E0FB68BA699A677B6903F0B5
S2140052D01003002B04D0FB68BA69C3F8842003E0EF
S2140052E0FB68BA69C3F888207B6903F04003002B8B
S2140052F004D0FB68BA69C3F8C42003E0FB68BA6947
S214005300C3F8C8207B6903F08003002B04D0FB6839
S214005310BA69C3F8042103E0FB68BA69C3F8082138
S2140053207B6903F00103002B03D0FB68BA695A615E
S21400533002E0FB68BA699A617B6903F00203002BFE
S21400534003D0FB68BA695A6202E0FB68BA699A62DF
S2140053507B6903F00403002B03D0FB68BA695A6329
S21400536002E0FB68BA699A633437BD465DF8047B91
S214005370704700BF80B495B000AF78600B46FB70F6
S2140053807B68FB64FB7887F84B3097F84B30012B33
S2140053902DD1FB6C7B647B6C3B643B6C5B09FB63D5
S2140053A0FB6B03F5001303F5E1635B02FA6CBA636B
S2140053B0BA6B02F01F02012101FA02F25A64FB6C7A
S2140053C07B637B6B3B633B6B5B09FB62FB6A03F5B2
S2140053D0001303F5E1635B02FA6CBA62BA6A02F084
S2140053E01F02012101FA02F2C3F8682130E097F8A3
S2140053F04B30002B2CD1FB6C7B627B6A3B623B6A9A
S2140054005B09FB61FB6903F5001303F5E1635B02CF
S214005410FA6CBA61BA6902F01F02012101FA02F2BF
S2140054209A64FB6C7B617B693B613B695B09FB6053
S214005430FB6803F5001303F5E1635B02FA6CBA60E0
S214005440BA6802F01F02012101FA02F2C3F86421D1
S2140054505437BD465DF8047B704700BF80B48DB0FE
S21400546000AF78600B46FB707B68FB62FB7887F8C2
S2140054702B3097F82B30002B16D0FB6A7B627B6AAA
S2140054803B623B6A5B09FB61FB6903F5001303F5AE
S214005490E1635B02FA6ABA61BA6902F01F0201218F
S2140054A001FA02F25A6515E0FB6A7B617B693B6193
S2140054B03B695B09FB60FB6803F5001303F5E163DA
S2140054C05B02FA6ABA60BA6802F01F02012101FAAA
S2140054D002F29A653437BD465DF8047B704700BF1C
S2140054E080B48DB000AF78600B46FB707B68FB62C3
S2140054F0FB7887F82B30FB6A7B627B6A5A09FB6A6B
S2140055003B623B6A03F01F03012101FA03F3FA61D1
S214005510BB6197F82B30FB75FB693B613B6903F574
S214005520001303F5E1635B02FB60FB7D03F0010300
S214005530002B04D0FB68BA69C3F8A42003E0FB681C
S214005540BA69C3F8A820FB7D03F00203002B04D041
S214005550FB68BA69C3F8B42003E0FB68BA69C3F80D
S214005560B8203437BD465DF8047B704780B586B0FA
S21400557000AF3B461846344B984707F110023B46AF
S214005580104632491A46324B984707F11003184620
S214005590304B9847304B9847472001212F4B984770
S2140055A0472001212E4B9847582000212B4B984727
S2140055B0582008212B4B98470C200121294B98474F
S2140055C00C20294B98470D200121264B98470D208B
S2140055D0254B984706200021204B98470620482157
S2140055E0204B984706200221204B98472320002175
S2140055F01A4B9847232008211A4B9847242000214D
S214005600164B984724200821164B9847082001215E
S214005610124B984709200121104B98475020012132
S2140056200E4B98475A2000210E4B98475A200E4B97
S21400563098475B2000210B4B98475B200A4B984706
S2140056401837BD4680BD00BF355F0000000C0F4018
S214005650715F000071600000155200007553000075
S2140056605D5400007152000029520000E154000011
S21400567080B483B000AFEFF310833B603B68002B31
S21400568014BF00230123DBB27B6072B6BFF35F8FCB
S214005690044B00221A707B6818460C37BD465DF82E
S2140056A0047B70478C04002080B483B000AF786021
S2140056B07B68002B0CBF00230123DBB218460C3797
S2140056C0BD465DF8047B704780B582B000AF786059
S2140056D07868074B98470346002B05D0054B0122F8
S2140056E01A70BFF35F8F62B60837BD4680BD00BF35
S2140056F0A95600008C04002080B58AB000AFF86080
S214005700B9607A6000237B62FB68DB697B627B6A38
S21400571023F003037B62BB6803F003037A6A134338
S2140057207B627B6A43F008037B627B6A43F0040378
S2140057307B62164B98473862154B9B68FB61144B8F
S2140057401B68BB61124B5B687B61114B7A685A60C1
S2140057500F4B05221A60F868796A0E4B9847034685
S214005760FB740B4B00221A60094B7A695A60084B8F
S214005770FA699A60064BBA691A60386A064B984707
S214005780FB7C18462837BD4680BD00BF715600001A
S21400579010E000E01D000020C956000080B485B06F
S2140057A000AF786039600023FB607B68DB69FB60D4
S2140057B0FB6823F00303FB603B6803F00303FA680F
S2140057C01343FB60FB6843F00803FB60FB6843F091
S2140057D00403FB60054B064A9A617B68FA68DA6147
S2140057E01437BD465DF8047B704700BF00000F40CD
S2140057F01C0000AA80B485B000AF78607B68DB69C7
S21400580043F08073FB60054B054A9A617B68FA6833
S214005810DA611437BD465DF8047B704700000F4020
S2140058201C0000AA80B483B000AF78607B685B6918
S21400583018460C37BD465DF8047B704780B485B0CB
S21400584000AF786039607B68DB69FB60FB6823F437
S2140058508073FB60FB6823F40073FB60FB6823F433
S2140058604053FB60434B444A9A613B68012B09D185
S2140058707B68FA68DA61414B404A126922F00402FA
S2140058801A6162E03B68022B0DD1FB6843F480533B
S214005890FB607B68FA68DA61384B384A126922F096
S2140058A004021A6151E03B68032B0DD1FB6843F4F8
S2140058B00053FB607B68FA68DA61304B2F4A126946
